:020000040800F2
:1000000098050020AD580008610100086301000850
:10001000670100086B0100086F0100080000000084
:100020000000000000000000000000007301000854
:100030007501000800000000770100087901000840
:10004000C7580008C7580008C7580008C758000814
:10005000C7580008C758000829070008C7580008F3
:10006000C7580008C7580008C7580008C7580008F4
:10007000C7580008C7580008C7580008C7580008E4
:10008000C7580008C7580008C7580008C7580008D4
:10009000C7580008C7580008C7580008AD06000830
:1000A000C7580008C7580008C7580008C7580008B4
:1000B000C7580008C7580008C7580008C7580008A4
:1000C000C7580008C7580008C7580008C758000894
:1000D000C7580008C7580008C5560008C758000888
:1000E000C7580008C7580008C7580008DFF810D0E4
:1000F00007F0C8FD0048004705010008AFF3008085
:100100009805002000F0A6FB642000F0E0FB00F062
:100110000BFC00F0A5FC00F0F0FC04F0C3F900F0CB
:1001200078FF03F0A5F9002141F61F4000F090FE92
:100130004FF47A7000F0CBFB00F04AFD00F024FC95
:1001400000F036FB07E00448B0F900100348B0F9AE
:10015000000005F082FBF6E73E0000203C00002096
:10016000704700BFFEE700BFFEE700BFFEE700BF2D
:10017000FEE7704770477047704700000CB50020DD
:10018000019000906C48006840F480306A49086033
:1001900000BF6948006800F4003000900198401CDE
:1001A0000190009818B90198B0F5A06FF1D162489C
:1001B000006800F4003010B10120009001E0002040
:1001C00000900098012843D15C48006840F010007E
:1001D0005A4908600846006820F003000860084695
:1001E000006840F002000860534840685249486087
:1001F0000846406848600846406840F480604860AF
:100200000846406820F47C1048600846406840F486
:10021000E81048600846006840F08070086000BF41
:100220004548006800F000700028F9D04248406856
:1002300020F00300404948600846406840F0020052
:10024000486000BF3C48406800F00C000828F9D125
:100250000CBD10B5FFF792FF10BD10B53648006811
:1002600040F00100344908600846406834490840BD
:100270003149486008460068324908402E49086004
:100280000846006820F4802008600846406820F492
:10029000FE0048604FF41F008860FFF7DAFF4FF060
:1002A00000602949086010BD10B50021002000221F
:1002B000214B5B6803F00C0121B1042906D0082909
:1002C00028D107E0214B224C236027E01F4B204C14
:1002D000236023E0184B5B6803F47010164B5B68D7
:1002E00003F48032022303EB904022B9194B4343BD
:1002F000174C23600DE0104B5B6803F4003323B10F
:10030000144B4343124C236003E0104B4343104C07
:10031000236003E00D4B0E4C236000BF00BF064B73
:100320005B68C3F303130C4CE15C094B1B68CB40C7
:10033000074C236010BD0000001002400020024066
:100340000000FFF8FFFFF6FE08ED00E000127A0063
:100350005000002000093D00540000202DE9F0412C
:1003600004460E46154614B90020BDE8F081216C04
:100370006164E16B2164A561E6613146284607F0BE
:10038000DEF8E063207800284CD1E16B606807F06C
:10039000DCF86062E16BA06807F0D7F80746A16A55
:1003A00007F07BF8A062616BA163216B6163D4E904
:1003B0000F0107F0C4F82063216BE06807F0C5F86F
:1003C000E0626169A06A07F03DFB02D26069A06249
:1003D0000BE0606980F000473846A16A07F032FB05
:1003E00003D2606980F00040A062D4E9090107F0FF
:1003F00054F80746E16A07F050F820622169206A44
:1004000007F020FB02D2206920620BE0206980F017
:1004100000473846216A07F015FB03D2206980F0B7
:1004200000402062206AA0E72DE9F04104460E4614
:10043000154614B90020BDE8F081216C6164E16BC0
:100440002164A561E6613146284607F078F8E0634B
:10045000207800284CD1E16B606807F076F8606284
:10046000E16BA06807F071F80746A16A07F015F87C
:10047000A062616BA163216B6163D4E90F0107F096
:100480005EF82063216BE06807F05FF8E062616965
:10049000A06A07F0D7FA02D26069A0620BE0606937
:1004A00080F000473846A16A07F0CCFA03D26069B1
:1004B00080F00040A062D4E9090106F0EEFF074693
:1004C000E16A06F0EAFF20622169206A07F0BAFAC1
:1004D00002D2206920620BE0206980F00047384694
:1004E000216A07F0AFFA03D2206980F00040206251
:1004F000206AA0E710B5C048006850BBBF4800881C
:1005000018B9012003F0EDFFCFE0BC4800880128B6
:10051000FAD1BB48008818B9012004F043FAC4E0BE
:10052000B74800880128EFD1B34908600020B349DB
:100530000880B3490880B34908800120B249088087
:10054000B24908800020B24908800120B1490880E2
:10055000ABE0A948006801283BD1AF4800880128DA
:1005600037D1AA48008898BBA448008818B9002051
:1005700003F0B7FF99E0A14800880128C4D1A14841
:10058000008818B95A2000F08AFB8EE09D48008848
:100590000128B9D19A48008818B9012004F002FA5C
:1005A00083E09748008801287FD1022092490860A3
:1005B00000209249088092490880924908800120D1
:1005C00092490880924908800220924908806CE094
:1005D000FFE78948006802283CD18F48008801283D
:1005E00038D18A480088A0BB8448008818B9002008
:1005F00003F077FF59E081480088012855D18148F0
:10060000008818B9B42000F04AFB4EE07D4800880D
:1006100001284AD17A48008818B9012004F0C2F9AB
:1006200043E07748008801283FD1032072490860E1
:1006300000207249088072490880724908800120B0
:10064000724908800220724908800320714908809D
:100650002BE0FFE768480068032826D16E48008831
:10066000012822D169480088F8B96448008818B97F
:10067000002003F036FF18E060480088012814D1FC
:100680006048008818B95A2000F009FB0DE05D4869
:100690000088012809D104205749086000205749E3
:1006A0000880574908805749088010BD70B55B48DD
:1006B0000068002837D1202059490860022000F046
:1006C00066FA404257490860032000F060FA564934
:1006D000086004F002FFFFF70DFF5248006807F0C2
:1006E0002CF905465148294602685148FFF79CFEFF
:1006F000044607F041F94F4908604B48006807F08D
:100700001CF905464C48294602684C48FFF726FE6E
:10071000044607F031F94A4908600846016845482F
:10072000006800F07CFA70BD10B5012005F0B2F948
:1007300038B1012005F0BFF942480068401C41492A
:10074000086010BD70B5049C00B102B970BD0170A5
:1007500015684560556885609568C56003614461AA
:1007600000268663466306630662C6628662466248
:1007700046640664C66300BFE8E770B5049C00B138
:1007800002B970BD0170156845605568856095684F
:10079000C5600361446100268663466306630662A2
:1007A000C6628662466246640664C66300BFE8E7C6
:1007B00008B52548254B264A002100901C48FFF724
:1007C000DCFF2148214B224A002100901B48FFF703
:1007D000B9FF08BD00B97047002242640264C263D9
:1007E0008263426302630021C162816241620162ED
:1007F0008161C16100BFEEE7640000202C00002091
:100800002E0000202A0000203400002038000020A4
:100810003C0000203E0000203A00002014812142CC
:1008200014040140080000200C00002018000020E3
:10083000F4000020100000201C0000203C010020DB
:10084000140000204000002000409C4500C0DA4514
:100850009489000810B56FF0040005F088F82E4860
:1008600000682E49B0FBF1F02D4908700846007869
:1008700000EB4001C1EBC0104FF6FF7101EAC00070
:100880002849088010BD0146254A12784A434FF096
:10089000E0235A6100229A611A46126942F001026D
:1008A0001A6100BF4FF0E022106900F001021AB196
:1008B00000F48032002AF5D04FF0E022126922F0D5
:1008C00001024FF0E0231A6100229A61704701464D
:1008D000144A12884A434FF0E0235A6100229A6179
:1008E0001A46126942F001021A6100BF4FF0E0227D
:1008F000106900F001021AB100F48032002AF5D02C
:100900004FF0E022126922F001024FF0E0231A6159
:1009100000229A61704700005000002000127A0007
:10092000680000206A00002008B54FF4A06004F0C1
:10093000CFFF17208DF8000001208DF801008DF801
:1009400002008DF80300684604F0C7FF28208DF8E8
:10095000000000208DF8010002208DF80200012027
:100960008DF80300684604F0B8FF26208DF80000DB
:1009700002208DF801008DF8020001208DF803009F
:10098000684604F0AAFF08BD1FB50121084605F01E
:10099000B7FB0121082005F0B3FB2020ADF80C00C7
:1009A00048208DF80F0003A92C4805F0EDF805212B
:1009B000012005F0FFF92020019000208DF80800AB
:1009C0000C208DF8090001208DF80A0001A804F020
:1009D000FBFF17208DF8000000208DF8010001209A
:1009E0008DF802008DF80300684604F076FF1FBD05
:1009F0001FB50121084605F083FB0121082005F001
:100A00007FFB0120ADF80C0048208DF80F0003A9F2
:100A1000124805F0B9F80021012005F0CBF90120BA
:100A2000019000208DF808000C208DF809000120AD
:100A30008DF80A0001A804F0C7FF06208DF8000019
:100A400000208DF8010002208DF8020001208DF8B1
:100A50000300684604F041FF1FBD0000000C014088
:100A600000B587B00121084605F057FB012104209D
:100A700005F046FB0320ADF8000004208DF80300CC
:100A80006946514805F080F804A805F09DFF002054
:100A9000ADF810004FF6FF70ADF814000020ADF86F
:100AA0001600ADF8120004A94FF0804005F060FC7C
:100AB00000231A4603214FF0804006F068F801A891
:100AC00005F095FF0A20ADF80C0001A9400705F0DC
:100AD000E2FE0121880706F06DFA01221146900717
:100AE00005F0BDFF00214FF0804006F031FA0121F2
:100AF000880705F099FF07B000BD00B587B0012158
:100B0000022005F00AFB0121042005F0F9FAC020BB
:100B1000ADF8000004208DF8030069462A4805F06E
:100B200033F804A805F050FF0020ADF810004FF690
:100B3000FF70ADF814000020ADF81600ADF81200FB
:100B400004A9224805F014FC00231A4603211F487B
:100B500006F01DF801A805F04AFF0A20ADF80C00C8
:100B600001A91A4805F097FE0121184806F022FA5B
:100B700001221146154805F072FF0021134806F0C6
:100B8000E7F90121114805F04FFF07B000BD01460C
:100B9000022902D0032912D108E04FF08042928C42
:100BA00010B200224FF080439A840AE0074A2432B0
:100BB000128810B20022054B24331A8001E0002075
:100BC00000BF00BF70470000000801400004004063
:100BD00008B50121082005F093FA4FF47040ADF8F4
:100BE000000010208DF8030003208DF802006946F4
:100BF000834804F0C9FF0020824908608249C1F897
:100C0000BC018049091F08607F49C1F8B40108BDD3
:100C10000146002901DA484200E00846704700B565
:100C200003460A46002B0DDA00207649091D0860AC
:100C300001207549C1F8B8011846FFF7E9FF73496B
:100C400008800CE001206F49091D086000206E49F2
:100C5000C1F8B8011846FFF7DBFF6C490880002A8D
:100C60000EDA00206749091F086001206649C1F8B3
:100C7000B0011046FFF7CCFF64490C3108800DE04D
:100C800001206049091F086000205F49C1F8B001D8
:100C90001046FFF7BDFF5D490C31088000BD10B55F
:100CA00004465B480068002857D12D2C14D00CDC7A
:100CB00014F1B40F41D014F1870F37D014F15A0F4B
:100CC0002DD014F12D0F3FD122E05A2C0BD0872CC0
:100CD00010D0B42C38D114E04E484F4908600120A0
:100CE0004B49086038E04D484B49086001204849AD
:100CF000086031E04A4848490860012044490860DA
:100D00002AE048484449086001204149086023E03E
:100D100045484649086002203D4908601CE04448B7
:100D20004249086002203A49086015E041483F49BD
:100D300008600220364908600EE03F483B490860E1
:100D400002203349086007E0002033490860374932
:100D500008602F49086000BF00BF2D4800680128C7
:100D600027D100212C48006806F06CFE11D24FF00C
:100D70007E512948006806F0E2FB274908602F48A9
:100D80002F4908602F483049086000202F4908800B
:100D90000FE000212048006806F04AFE09D100203B
:100DA0002749086028490860194908600120274937
:100DB000088017480068022821D100211B480068DC
:100DC00006F040FE0ED24FF07E511848006806F043
:100DD000B6FB164908601B481949086017481A49AC
:100DE00008600CE000211148006806F021FE06D1E1
:100DF000002013490860144908600549086010BDC7
:100E0000000C0140B881214200802142342C014075
:100E10006C0000200000E04120000020000064423F
:100E20000000B0420000E6420000F0412400002033
:100E3000000068420000AE420000E8420000164494
:100E400018000020000016C41C0000202A0000200A
:100E500030B589B004460D460121C80205F050F9AD
:100E60000121042005F04CF94FF41060ADF820008A
:100E700018208DF8230003208DF8220008A91E48B1
:100E800004F082FEADF81840ADF814500020ADF823
:100E90001A00ADF8160005A9184805F069FA602097
:100EA000ADF804000120ADF806000020ADF80A00FE
:100EB0006010ADF80A000020ADF80C0001A90F4841
:100EC00005F093FA01A90D4805F069FB01210B48D3
:100ED00005F0B6FD0821094805F0D6FE08210748AF
:100EE00005F0F1FE0121054805F09EFE01210348B1
:100EF00005F09AFD09B030BD00080140002C01400A
:100F000070B505460C4600F0C7F9D02000F06EFA27
:100F100000F0FFF918B100F0DDF9012070BD28469E
:100F200000F064FA00F0F5F9204600F05FFA00F0F6
:100F3000F0F918B100F0CEF90120EFE700F0CAF99E
:100F40000020EBE770B504460025BC2C01DB012531
:100F500010E0622C01DB02250CE02A2C01DB0325CA
:100F600008E0142C01DB042504E00A2C01DB052534
:100F700000E0062529461A20FFF7C2FF70BD70B5B4
:100F80000446B4F57A7F01DD4FF47A74042C00DA5C
:100F900004244FF47A7090FBF4F0401EC5B2294649
:100FA0001920FFF7ADFF0546264604EBD671C1F3C5
:100FB0004F00FFF7C7FF70BD70B5044600F06CF935
:100FC000D02000F013FA00F0A4F9204600F00EFA49
:100FD00000F09FF900F060F9D12000F007FA00F06E
:100FE00098F9002000F02BFA054600F073F9284626
:100FF00070BD10B50446E006010E1C20FFF780FF0F
:1010000010BD10B50446E006010E1B20FFF778FF67
:1010100010BD10B500F02DF980216B20FFF770FF97
:101020006420FFF754FC00216B20FFF769FF0320C9
:10103000FFF7E7FF0020FFF7DCFFC820FFF79FFF67
:1010400000213820FFF75CFF00216A20FFF758FFDE
:1010500000212320FFF754FF80213720FFF750FFA6
:101060007520FFF7A9FF0446682C0BD101216B20E6
:10107000FFF746FF00216C20FFF742FFC820FFF773
:101080007EFF01E0012010BD0020FCE72DE9F041CA
:1010900006460F4614461D4600F0FEF8002141EAC0
:1010A0004601C8B200F0A2F900F033F920B100F017
:1010B00011F90120BDE8F081384600F097F900F001
:1010C00028F900F0E9F8012101EB4601C8B200F06F
:1010D0008DF900F01EF90DE0012C04D1002000F084
:1010E000AEF9287003E0012000F0A9F92870601E15
:1010F000C4B26D1C002CEFD100F0ECF80020D9E751
:101100002DE9F84F6B46022241216820FFF7BEFF10
:101110009DF801009DF8001040EA01200FFA80FAC6
:10112000504606F018FC804600224B4B06F096FB1A
:1011300006464A4A4A4B06F078FA044606F05CFC3A
:1011400083464849584606F000FA044606F014FC67
:1011500000B2BDE8F88F2DE9FC4104460D46164665
:101160006B46062243216820FFF790FF0746BFB970
:101170009DF801009DF8001040EA012000B2208097
:101180009DF803009DF8021040EA012000B228807B
:101190009DF805009DF8041040EA012000B230805F
:1011A0003846BDE8FC812DE9FC4104460D46164653
:1011B0006B4606223B216820FFF768FF0746BFB950
:1011C0009DF801009DF8001040EA012000B2208047
:1011D0009DF803009DF8021040EA012000B228802B
:1011E0009DF805009DF8041040EA012000B230800F
:1011F0003846BDE8FC812DE9F04105460E4617460C
:10120000984600F049F8002141EA4501C8B200F0D3
:10121000EDF800F07EF820B100F05CF80120BDE8A8
:10122000F081304600F0E2F800F073F800240CE0A2
:1012300018F8040000F0DAF800F06BF818B100F0CC
:1012400049F80120EBE7601CC4B2BC42F0DB00F0BF
:1012500041F80020E3E7000000407540A4703D0A1B
:10126000D74342400000C84210B50220FFF70BFBF5
:1012700010BD08B50121082004F042FFC020ADF8E0
:10128000000010208DF8030003208DF8020069464D
:10129000834804F079FC08BD10B58148006820F04F
:1012A00070407F4908600846006840F04050086080
:1012B00001207C4908607C49C1F89801FFF7D4FF00
:1012C000002078490860FFF7CFFF00207649C1F879
:1012D000980110BD10B57248006820F07040704948
:1012E00008600846006840F04050086000206D49E2
:1012F000091F08606C49C1F89C01FFF7B5FF012088
:101300006849091F08606849C1F89C01FFF7ACFFF4
:1013100010BD10B500246248006820F0704060499C
:1013200008600846006840F00040086001205D4900
:101330000860FFF799FF01205B49C1F89801FFF7AA
:1013400093FF07E0601CC4B2FA2C03DDFFF7C2FF75
:10135000012010BD5348803800680028F2D151495F
:10136000091F086000BFF4E710B500204D49091FB0
:1013700008604B48006820F0704049490860084602
:10138000006840F04050086000204749C1F89C01C7
:10139000FFF76AFF01204349091F0860FFF764FF58
:1013A00000204149C1F8980110BD10B500203D4909
:1013B000091F08603A48006820F07040384908600A
:1013C0000846006840F04050086001203649C1F8E6
:1013D0009C01FFF749FF01203249091F0860FFF710
:1013E00043FF00203049C1F8980110BD70B5044694
:1013F0002B48006820F070402949086008460068C2
:1014000040F04050086000202649091F0860002570
:1014100012E0E009234908606006040E0120224919
:10142000C1F89801FFF720FF00201E49091F08603E
:10143000FFF71AFF681CC5B2082DEADB70BD70B556
:10144000054600241648006820F0704014490860E2
:101450000846006840F000400860002615E00020C3
:101460001049091F0860FFF7FFFE01200E49C1F86F
:1014700098016006040E0B488038006808B1601CB3
:10148000C4B2FFF7F1FE701CC6B2082EE7DB15B937
:10149000FFF78BFF01E0FFF767FF204670BD0000FC
:1014A000000C01409C8121420080214238B5044655
:1014B000F74890F82400C0B114B10220009001E078
:1014C00000200090F24A1268D17BF14A52681078ED
:1014D0006B460122FFF78FFE10B14FF0FF3038BD91
:1014E0009DF80010EA48417423E0E948807A10B979
:1014F0004FF0FF30F3E724B1E548407C08B100200D
:10150000EDE714B10120009001E000200090E04AD6
:101510001268D17BDE4A526810786B460122FFF7D1
:101520006AFE10B14FF0FF30D9E79DF80010D8489F
:1015300041740020D3E738B500241FE0D448006888
:10154000C07AA04204D0D2480068407DA04200D1B9
:1015500012E0CF49496808786B4601222146FFF71F
:1015600095FD10B14FF0FF3038BD9DF800202146A9
:10157000C8A006F0FBFB00BF601CC4B2C4484068B2
:101580000079A042DADC0020EEE770B504460D4693
:10159000BF480068C07AA04204D0BD480068407DC2
:1015A000A04202D14FF0FF3070BDB94840680079C9
:1015B000A04202DC4FF0FF30F6E7B54949680878F1
:1015C0002B4601222146FFF761FDEDE738B50446C1
:1015D000AF4890F82300A04201D1002038BD14B1DB
:1015E0003020009001E000200090A948807C20B1CC
:1015F0009DF8000040F002000090A54890F82200FD
:1016000020B19DF8000040F080000090A04A1268D0
:10161000117D9F4A526810786B460122FFF7EBFD5F
:1016200010B14FF0FF30D9E7994880F823400020EF
:10163000D4E738B5044604F0700010B101200090E2
:1016400005E014B10020009001E040200090904A95
:101650001268917C8E4A526810786B460122FFF71F
:10166000CAFD20B100218A488172481E38BD9DF80C
:10167000000020F04001864801730020009004F033
:10168000400020B99DF8000040F00400009004F0F4
:10169000200020B99DF8000040F00200009004F006
:1016A000100020B99DF8000040F00100009004F007
:1016B000080020B99DF8000040F038000090744AFE
:1016C0001268D17C724A526810786B460122FFF78B
:1016D00092FD20B100216E488172481EC6E724B1F8
:1016E000082C02D00020FFF771FF694884720021A6
:1016F00001753220FFF7EBF80020B7E738B5044654
:101700006348807CA04201D1002038BD002C46D027
:101710005F4A126811795E4A526810786B4601225E
:10172000FFF7B4FC10B14FF0FF30EEE79DF800007A
:1017300020F020000090564A12681179544A5268ED
:1017400010786B460122FFF756FD10B14FF0FF30C5
:10175000DBE70320FFF7BBF8022000904C4890F82D
:10176000220020B19DF8000040F080000090484821
:1017700090F8230020B19DF8000040F03000009068
:10178000434A1268117D424A526810786B46012222
:10179000FFF731FD002851D04FF0FF30B5E73C4A4C
:1017A000126811793A4A526810786B460122FFF7A5
:1017B0006DFC10B14FF0FF30A7E73548807A00F09C
:1017C000010028B19DF8000040F02000009004E0E6
:1017D0009DF8000020F0200000902D4A1268117939
:1017E0002B4A526810786B460122FFF704FD10B1B6
:1017F0004FF0FF3089E70320FFF769F8244890F89D
:10180000220010B18020009001E0002000902048CC
:1018100090F8230020B19DF8000040F030000090C7
:101820001B4A1268117D1A4A526810786B460122D1
:10183000FFF7E1FC10B14FF0FF3066E71448847405
:10184000002062E708B51248807A10B94FF0FF30E7
:1018500008BD002000900E4A1268D17B0C4A5268E5
:1018600010786B460122FFF7C6FC10B14FF0FF3035
:10187000EEE7074A12685179054A526810786B46BC
:101880000122FFF7B8FC68B14FF0FF30E0E700003D
:1018900070000020252335783A20252335780D0A5D
:1018A00000000000F84A12681179F74A526810786F
:1018B0006B460122FFF79FFC10B14FF0FF30C7E7E6
:1018C000F14890F82400002853D00C200090EE4AF4
:1018D00012681179EC4A526810786B460122FFF7C2
:1018E0008AFC10B14FF0FF30B2E73220FEF7EFFF75
:1018F000C0200090E448807A00F0010020B19DF8FB
:10190000000040F020000090DF4A12681179DE4AA2
:10191000526810786B460122FFF76DFC10B14FF052
:10192000FF3095E7D848407C10B10220009001E0DC
:1019300000200090D44A1268D17BD34A52681078B4
:101940006B460122FFF757FC10B14FF0FF307FE7E5
:1019500000200090CC4A12685179CB4A5268107826
:101960006B460122FFF747FC002855D04FF0FF30AF
:101970006EE704200090C44A12681179C24A526886
:1019800010786B460122FFF736FC10B14FF0FF30A4
:101990005EE7BD48807C20B9BB48807A00F001003A
:1019A00010B94020009001E060200090B64A126813
:1019B0001179B54A526810786B460122FFF71BFC7B
:1019C00010B14FF0FF3043E73220FEF780FFAE4802
:1019D000407C10B10120009001E000200090AA4A54
:1019E0001268D17BA84A526810786B460122FFF733
:1019F00002FC10B14FF0FF302AE7A34A1268517978
:101A0000A14A52681078A04B10330122FFF7F3FB74
:101A100010B14FF0FF301BE7002019E770B5044606
:101A2000002624F00104984890F8240008B1002012
:101A300070BD9548807A10B94FF0FF30F8E79248B2
:101A4000057C807A2040904908740846007CA042BA
:101A500002D04FF0FF3600E0002614B98A48007D1E
:101A600018B10120FFF722FD02E00020FFF71EFD64
:101A70003CB1FFF7E7FE20B1834805744FF0FF301B
:101A8000D6E73046D4E738B504467F48807A10B9A7
:101A90004FF0FF3038BDBC2C02DB0120009015E078
:101AA000622C02DB0220009010E02A2C02DB0320D3
:101AB00000900BE0142C02DB0420009006E00A2CBE
:101AC00002DB0520009001E0062000906E48C07AFD
:101AD0009DF80010884201D10020DBE76A4A1268B5
:101AE0009178694A526810786B460122FFF783FBB0
:101AF00010B14FF0FF30CDE79DF800106248C17281
:101B00000020C7E738B50446282C02DD4FF0FF302F
:101B100038BDDCB90020FFF759FD00208DF800002A
:101B200007208DF80100584A1268917C564A526885
:101B300010786B460222FFF75EFB10B14FF0FF30CA
:101B4000E6E70021504801750020E1E70120FFF79A
:101B50003DFD20208DF80000012C06D100208DF8DD
:101B600001000520FFF78FFF17E0052C06DC0120A0
:101B70008DF801000520FFF786FF0EE0142C06DC2F
:101B800002208DF801000A20FFF77DFF05E0032009
:101B90008DF801001420FFF776FF9DF80100072162
:101BA00001EB8010C0B28DF80100374A1268917CB9
:101BB000354A526810786B460222FFF71CFB10B1C1
:101BC0004FF0FF30A4E708212F48817200210173F4
:101BD000012101750020FFF721FF002098E738B5AB
:101BE00004462948807A10B94FF0FF3038BD2648A6
:101BF00090F8240010B14FF0FF30F7E72248007D45
:101C000050B134B1282C04DCE0B2FFF77BFF002098
:101C1000ECE70020FFF776FF042C01DA042404E04F
:101C2000B4F57A7F01DD4FF47A744FF47A7090FB4B
:101C3000F4F0401EC0B20090134A12685178124A64
:101C4000526810786B460122FFF7D5FA10B14FF0B9
:101C5000FF30CBE79DF80000401C4FF47A7191FBF8
:101C6000F0F081B20848C1810146C9894810FFF7E8
:101C70000AFF0020BAE738B504460348807A28B93D
:101C80004FF0FF3038BD000070000020022C06D05D
:101C9000042C07D0082C08D0102C0CD108E0002010
:101CA00000900BE00820009008E01020009005E074
:101CB0001820009002E04FF0FF30E3E700BFF94842
:101CC000407A9DF80010B0EBE10F01D10020D9E778
:101CD000F44A1268D179F34A526810786B460122AF
:101CE000FFF789FA10B14FF0FF30CBE79DF8000005
:101CF000C110EC4841720020C4E738B50446E948F9
:101D0000807A10B94FF0FF3038BDFA2C09D0B4F505
:101D1000FA7F09D0B4F57A7F09D0B4F5FA6F0CD107
:101D200008E0002000900BE00820009008E0102060
:101D3000009005E01820009002E04FF0FF30E3E74C
:101D400000BFD848007A9DF80010B0EBE10F01D138
:101D50000020D9E7D34A12689179D24A52681078A4
:101D60006B460122FFF747FA10B14FF0FF30CBE787
:101D70009DF80000C010CB4908720020C4E71CB5D4
:101D800080208DF80000C74A1268917CC54A5268CD
:101D900010786B460122FFF72EFA10B14FF0FF309A
:101DA0001CBD6420FEF793FD00208DF80000BD4AA5
:101DB0001268917CBB4A526810786B460122FFF78B
:101DC0001AFA10B14FF0FF30EAE7B64A1268917D77
:101DD000B44A526810786B460622FFF757F910B1E3
:101DE0004FF0FF30DCE79DF80500C007400F9DF87D
:101DF000031001F0010140EA41009DF8011001F0DB
:101E0000010140EA010494B1012C03D10121A5484C
:101E1000C17431E0022C03D10021A248C1742BE02F
:101E20002146A1A005F0A2FF4FF0FF30B8E79D4A80
:101E30001268D1789B4A526810786B460122FFF7EE
:101E400025F910B14FF0FF30AAE79DF8000000F02F
:101E50000F042CB99E4805F089FF4FF0FF309FE733
:101E6000042C06D19BA005F081FF01218D48C1748F
:101E700002E000218B48C174FF218A488172FF2053
:101E800088490872FF2187484172C1724FF6FF717D
:101E9000C181FF21017481740121017380F8221036
:101EA000002180F8231041750175163001604160F2
:101EB0008160163880F8241080F82510C1844FF412
:101EC000FA60FFF71AFF10B14FF0FF3068E7022009
:101ED000FFF7D1FE10B14FF0FF3061E72A20FFF786
:101EE000D2FD10B14FF0FF305AE73220FFF777FEF6
:101EF00010B14FF0FF3053E70020FFF78FFD10B116
:101F00004FF0FF304CE70020FFF7F8FB10B14FF027
:101F1000FF3045E70020FFF78CFB002040E77047CB
:101F20007CB504460D465F48807A00F0700010B919
:101F30004FF0FF307CBD5B4A1268117B594A5268F2
:101F400010786B460622FFF7A1F810B14FF0FF3072
:101F5000F0E79DF801009DF8001040EA012000B272
:101F600020809DF803009DF8021040EA012000B295
:101F700060809DF805009DF8041040EA012000B241
:101F8000A08015B12846FFF7CAFF0020D2E77CB534
:101F900004460D464348807A00F0080010B94FF01F
:101FA000FF307CBD3F4A1268517B3E4A5268107830
:101FB0006B460622FFF76AF810B14FF0FF30F0E7EA
:101FC0009DF801009DF8001040EA012000B2208039
:101FD0009DF803009DF8021040EA012000B26080E5
:101FE0009DF805009DF8041040EA012000B2A08091
:101FF00015B12846FFF793FF0020D2E72DE9FE4FE9
:1020000005460C462748807A18B94FF0FF30BDE8E6
:10201000FE8F244A1268917B224A5268107802ABE4
:102020000222FFF733F810B14FF0FF30EFE79DF8D1
:1020300009009DF8081040EA012006B214B12046BC
:10204000FFF76DFF17494968C88805F07FFC1549FF
:1020500001904968B1F9080005F06FFC83463046ED
:1020600005F06BFC5946009005F069FA824601992B
:1020700005F09DFA81461F4905F00FFA80464FF0A2
:102080008F4105F062FA074605F076FC28600020D3
:10209000BDE710B588B004461CB94FF0FF3008B05A
:1020A00010BD29E070000020556E737570706F725E
:1020B00074656420736F6674776172652070726FE7
:1020C00064756374207265762025642E0A00000012
:1020D000D896000848616C662073656E73697469F0
:1020E00076697479207061727420666F756E642EE3
:1020F0000A00000000000C42206830B9606820B976
:10210000A06810B9002008B010BDFA4949680878E5
:1021100006AB03221146FEF7B9FF10B14FF0FF30B6
:10212000F1E79DF81800082101EB201000F00F00E6
:10213000ADF800009DF8190001EB201000F00F0031
:10214000ADF802009DF81A0001EB201000F00F001E
:10215000ADF8040020684100BDF90000403091FB5B
:10216000F0F000B2ADF8100060684100BDF9020067
:10217000403091FBF0F000B2ADF81200A0684100D1
:10218000BDF90400403091FBF0F000B2ADF814004E
:10219000D8494968087806AB06221146FEF776FF53
:1021A00010B14FF0FF30AEE79DF819009DF8181000
:1021B00040EA012000B2ADF808009DF81B009DF830
:1021C0001A1040EA012000B2ADF80A009DF81D0087
:1021D0009DF81C1040EA012000B2ADF80C00BDF8DB
:1021E0001000BDF80810084400B2ADF81000BDF8AA
:1021F0001200BDF80A10084400B2ADF81200BDF894
:102200001400BDF80C10084400B2ADF81400BDF87D
:102210001000000A8DF81800BDF81000C0B28DF84B
:102220001900BDF81200000A8DF81A00BDF812005E
:10223000C0B28DF81B00BDF81400000A8DF81C0018
:10224000BDF81400C0B28DF81D00AA49496808788D
:1022500006AB06221146FEF7CEFF10B14FF0FF305D
:1022600051E700204FE70146A248007A30B101282B
:1022700007D0022809D003280FD10AE0FA200880ED
:102280000EE04FF4FA7008800AE04FF47A7008808C
:1022900006E04FF4FA60088002E00020088000BFEA
:1022A00000BF0020704701469248407A30B10128B3
:1022B00007D0022808D003280CD108E002200870BB
:1022C0000BE00420087008E00820087005E01020EA
:1022D000087002E04FF0FF30704700BF8548C07CB7
:1022E00018B108784006000E08700020F4E7014697
:1022F0008048C07A082817D2DFE800F01704070AE0
:102300000D101318BC20088013E06220088010E034
:102310002A2008800DE0142008800AE00A200880A6
:1023200007E00520088004E000BF00BF002008800F
:1023300000BF00BF0020704701466E4890F824009F
:1023400010B14FF0FF3070476A48C0890880002004
:10235000F9E7014600200880401E704701464FF013
:10236000FF30704701466348007A30B1012807D03A
:10237000022808D003280CD108E05F4808600BE071
:102380005E48086008E05E48086005E05D48086057
:1023900002E04FF0FF30704700BF0020FBE701462E
:1023A0005448407A30B1012808D002280AD00328C6
:1023B00010D10BE04FF4804008800EE041F69C7095
:1023C00008800AE04FF48050088006E04FF4006077
:1023D000088002E04FF0FF30704700BF4548C07CE6
:1023E00010B10888401008800020F5E701464148F8
:1023F000007C08700020704701463E48807A10B18A
:102400000120087001E0002008700020704738B5F6
:1024100004463848807A10B94FF0FF3038BD354A4D
:102420001268117C334A526810786B460222FEF71C
:102430002DFE10B14FF0FF30F0E79DF801009DF840
:10244000001040EA012000B220800020E6E72DE9DC
:10245000FE4F0746884692461D46DDF830B00026FE
:102460000024244890F8240010B1601EBDE8FE8FBF
:10247000002028701F48807A10B94FF0FF30F5E730
:102480001C48007C10B94FF0FF30EFE71948007C82
:1024900000F0400008B1B01CC6B21648007C00F045
:1024A000200008B1B01CC6B21248007C00F0100039
:1024B00008B1B01CC6B20F48007C00F0080008B19B
:1024C000B01DC6B20B4A1268917A0A4A5268107857
:1024D0006B460222FEF7DAFD10B14FF0FF30C5E780
:1024E0009DF801009DF8001040EA0129B1450BDA82
:1024F0000020BBE77000002000000343000083427F
:102500003333034233338341FC4840684088B9EB9E
:10251000600F17DDF94A1268517CF84A526810784A
:102520006B460122FEF7B2FD10B14FF0FF309DE780
:102530009DF8000000F0100020B1FFF783F96FF064
:10254000010093E75046FFF7EAFCEC4A1268D17AA3
:10255000EA4A526810786B463246FEF797FD10B192
:102560004FF0FF3082E799FBF6F0401E8BF8000039
:1025700000202870B4422AD0E048007C00F0080017
:1025800028B3601C1DF800001DF8041040EA01206B
:1025900000B2A8F80000E01C1DF80010A01C1DF8F7
:1025A000000041EA002000B2A8F80200601D1DF8FA
:1025B0000010201D1DF8000041EA002000B2A8F81C
:1025C0000400287840F008002870A01D84B2B442AE
:1025D00013D0CA48007C00F0400070B1601C1DF8A8
:1025E00000001DF8041040EA012000B2388028786D
:1025F00040F040002870A01C84B2B44213D0BF4801
:10260000007C00F0200070B1601C1DF800001DF877
:10261000041040EA012000B27880287840F02000C1
:102620002870A01C84B2B44213D0B448007C00F0DF
:10263000100070B1601C1DF800001DF8041040EA85
:10264000012000B2B880287840F010002870A01C4B
:1026500084B200200AE7F8B504460F461646A7489C
:1026600090F8240010B94FF0FF30F8BDA348807AED
:1026700010B94FF0FF30F8E7A04A1268917A9F4AEC
:10268000526810786B460222FEF700FD10B14FF041
:10269000FF30EAE79DF801009DF8001040EA0125AF
:1026A000A54203DA00203070401EDEE79348406800
:1026B0004088B5EB600F17DD904A1268517C8F4A55
:1026C000526810786B460122FEF7E0FC10B14FF023
:1026D000FF30CAE79DF8000000F0100020B1FFF7BE
:1026E000B1F86FF00100C0E7E2B2844B1B68D97A01
:1026F000824B5B6818783B46FEF7C8FC10B14FF080
:10270000FF30B2E795FBF4F0401E30700020ACE7DC
:1027100001467A4880F82210002070477CB50546B3
:1027200076494968087801AB04220D21FEF7AEFC1A
:1027300008B107207CBD9DF80700C0F301109DF88B
:10274000041001F0E00140EAE1008DF800009DF87E
:102750000700C0F381009DF8051001F0E00140EA98
:10276000E1008DF801009DF8070000F003009DF8DE
:10277000061001F0E00140EAE1008DF802000024BB
:102780001CE01DF8040018B9002045F8240013E0EF
:102790005B4845F8240006E055F82400594904F048
:1027A000D4FE45F824001DF80400401EC0B20DF808
:1027B00004000028F0D100BF601CC4B2032CE0DB91
:1027C0000020B7E72DE9FE4F06460F460025684674
:1027D000FFF7A4FF002442E056F8240057F8241025
:1027E000A0EB010ABAF1000F01DB514601E0CAF18A
:1027F0000001084605F0A1F883464FF08F4104F030
:10280000D6FE80465DF82400002105F011F916D0AF
:102810005DF82410404604F0CAFE82464FF07E5117
:1028200004F08DFE814629F0004A3748416A50463F
:1028300005F008F912D20120A04005430EE032480D
:10284000C169404605F0F4F805D32F48016A4046B7
:1028500005F0F8F802D20120A0400543641C032CC7
:10286000BADB2846BDE8FE8F2DE9FC5F06460F4621
:10287000002522494968087801AB03220D21FEF7A3
:1028800005FC10B10720BDE8FC9F9DF8040000F096
:102890001F008DF804009DF8050000F01F008DF862
:1028A00005009DF8060000F01F008DF806000024CA
:1028B00062E056F8240057F82410A0EB010BBBF19E
:1028C000000F01DB594601E0CBF10001084605F09D
:1028D00034F84FF08F41009004F069FE814601A862
:1028E000005DC0B30849086805F030F883465946D2
:1028F000064804F05CFE80460FE0000070000020F7
:102900007B14AE3E1D5A843FC889000800B04C4578
:10291000FE49404604F019FE804601A8005D401EB5
:10292000C0B201A908550028F2D14146484604F03A
:102930003EFE83464FF07E5104F001FE82462AF0AF
:10294000004BF3488169584605F07CF813D201200A
:10295000A04005430FE0FFE7ED480169484605F058
:1029600067F805D3EA484169484605F06BF802D29A
:102970000120A0400543641C032C9ADB284682E713
:102980002DE9F04F87B005460C46914601208DF8A1
:10299000100000208DF81100DE4A1268917CDD4A9B
:1029A0005268107804AB0222FEF725FC20B14FF0EC
:1029B000FF3007B0BDE8F08FC820FDF788FF00208A
:1029C0008DF81000D34A1268D17BD24A5268107831
:1029D00004AB0122FEF70FFC10B14FF0FF30E8E727
:1029E000CC4A12685179CB4A5268107804AB012264
:1029F000FEF701FC10B14FF0FF30DAE7C54A12686C
:102A0000917CC44A5268107804AB0122FEF7F3FBB4
:102A100010B14FF0FF30CCE7BE4A1268D17DBD4AFD
:102A20005268107804AB0122FEF7E5FB10B14FF0BD
:102A3000FF30BEE7B74A12681179B64A526810787B
:102A400004AB0122FEF7D7FB10B14FF0FF30B0E727
:102A50000C208DF81000AF4A12681179AD4A526807
:102A6000107804AB0122FEF7C6FB10B14FF0FF3027
:102A70009FE70F20FDF72BFFA648806A407A8DF86C
:102A80001000A44A12689178A24A5268107804ABE8
:102A90000122FEF7B0FB10B14FF0FF3089E79D48EF
:102AA000806A007A8DF810009A4A12685178994A23
:102AB0005268107804AB0122FEF79DFB10B14FF075
:102AC000FF3076E7B9F1000F07D09248806A807A2C
:102AD00040F0E0008DF8100004E08E48806A807AB3
:102AE0008DF810008B4A126891798A4A52681078E2
:102AF00004AB0122FEF77FFB10B14FF0FF3058E727
:102B0000B9F1000F07D08348806AC07A40F0E00036
:102B10008DF8100003E07E48C07A8DF810007D4AE1
:102B20001268D1797B4A5268107804AB0122FEF713
:102B300062FB10B14FF0FF303BE7B9F1000F02D05C
:102B4000C820FDF7C4FE40208DF81000714A1268BD
:102B50001179704A5268107804AB0122FEF74BFBE2
:102B600010B14FF0FF3024E778208DF81000694A4B
:102B700012685179674A5268107804AB0122FEF757
:102B80003AFB10B14FF0FF3013E761498889FDF738
:102B90009EFE00208DF810005E4A126851795D4A51
:102BA0005268107804AB0122FEF725FB10B14FF0FC
:102BB000FF30FEE6574A1268917A564A52681078FA
:102BC00004AB0222FEF762FA10B14FF0FF30F0E6DC
:102BD0009DF811009DF8101040EA012B0C209BFB82
:102BE000F0F0C6B20020A86068602860A060606055
:102BF0002060824665E0474A1268D17A454A5268A9
:102C0000107804AB0C22FEF741FA10B14FF0FF3000
:102C1000CFE69DF811009DF8101040EA012000B2A7
:102C2000ADF808009DF813009DF8121040EA01204D
:102C300000B2ADF80A009DF815009DF8141040EAA6
:102C4000012000B2ADF80C00BDF90810206808445E
:102C50002060BDF90A10606808446060BDF90C107E
:102C6000A0680844A0609DF817009DF8161040EA7F
:102C7000012000B2ADF800009DF819009DF8181071
:102C800040EA012000B2ADF802009DF81B009DF85B
:102C90001A1040EA012000B2ADF80400BDF900109E
:102CA000286808442860BDF9021068680844686014
:102CB000BDF90410A8680844A8600AF1010000F0FA
:102CC000FF0AB24597DB1248D0F800C02868C11748
:102CD000090441EA1041070462460023384604F023
:102CE00085FB32460023CDE9020104F07FFB28601A
:102CF0000748D0F800C06868C117090441EA1041CC
:102D0000070462460023384606E0000054E3853F8E
:102D1000C88900087000002004F068FB32460023D8
:102D2000CDE9020104F062FB6860FE48D0F800C003
:102D3000A868C117090441EA10410704624600234C
:102D4000384604F053FB32460023CDE9020104F07B
:102D50004DFBA860F348D0F804C02068C1170904EF
:102D600041EA1041070462460023384604F03EFB66
:102D700032460023CDE9020104F038FB2060E94827
:102D8000D0F804C06068C117090441EA1041070483
:102D900062460023384604F029FB32460023CDE981
:102DA000020104F023FB6060DE48D0F804C0A06894
:102DB000C117090441EA104107046246002338465E
:102DC00004F014FB32460023CDE9020104F00EFBAF
:102DD000A060A068002804DDA068A0F58030A06095
:102DE00003E0A06800F58030A0600020E1E538B580
:102DF0000446CD4890F82400A04201D1002038BDFF
:102E000024B3C94890F8250010B94FF0FF30F6E719
:102E10000020FEF74BFB0020FEF770FCC249C88C77
:102E2000FEF7DDFE00200090BF49496808786B4638
:102E300001222321FEF7DFF90121BB4880F824108D
:102E40000120FEF733FBFEF7FDFC13E00020FEF748
:102E50002DFBB548007C0090B349496808786B4663
:102E600001222321FEF7C7F90021AF4880F8241082
:102E7000FEF7E8FC0020C2E72DE9F04F8DB0834655
:102E80000F4602200C90A84890F8240020B10020A2
:102E9000FFF7ADFF012600E0002603A8FFF7E3F9E6
:102EA00005A8FFF700FA01A8FFF721FA02A8FFF72B
:102EB00043FA9D4890F80AA004A8FFF797FA002467
:102EC00007E0002239465846FFF75AFD00B902E0F4
:102ED000641C022CF5DB00BF022C01D1002528E088
:102EE000002407E0012206A909A8FFF749FD00B95F
:102EF00002E0641C022CF5DB00BF022C01D100258E
:102F000017E006A93846FFF75DFC00F0FF0809A9A5
:102F10005846FFF7A9FC00F0FF090025B9F1000FA2
:102F200001D145F00105B8F1000F01D145F00205CE
:102F300000BFFF207C490872FF217B484172C172AB
:102F40004FF6FF71C181FF2181720174012101736C
:102F5000BDF80C00FEF7D1FE9DF81400FEF78BFEC5
:102F6000BDF80400FEF78FFDBDF80800FEF737FE40
:102F70005046FEF75EFB9DF81000FEF74FFD16B1C0
:102F80000120FFF734FF28460DB0BDE8F08FF8B5FB
:102F900004460D46164616B94FF0FF30F8BD62489C
:102FA000807A10B94FF0FF30F8E720128DF800005A
:102FB000E0B28DF801009DF8010028445A494968A3
:102FC0004989884202DD4FF0FF30E7E7564A126830
:102FD000117E554A526810786B460222FEF70BF9B3
:102FE00010B14FF0FF30D9E7EAB24F4B1B68597D63
:102FF0004D4B5B6818783346FEF7FDF810B14FF083
:10300000FF30CBE70020C9E7F8B504460D46164669
:1030100016B94FF0FF30F8BD4348807A10B94FF031
:10302000FF30F8E720128DF80000E0B28DF80100C3
:103030009DF8010028443C4949684989884202DDDD
:103040004FF0FF30E7E7384A1268117E364A52687F
:1030500010786B460222FEF7CEF810B14FF0FF3029
:10306000D9E7EAB2304B1B68597D2F4B5B68187863
:103070003346FEF70BF810B14FF0FF30CBE70020DE
:10308000C9E72DE9F04385B005460E4690469946BE
:10309000254890F8250020B14FF0FF3005B0BDE87D
:1030A000F08316B94FF0FF30F8E7002423E0281B27
:1030B000102801DD102000E0281B87B232193946A4
:1030C0002046FFF764FF10B14FF0FF30E6E701AA9A
:1030D00039462046FFF798FF10B14FF0FF30DDE78B
:1030E00030193A4601A904F0CBF910B16FF0010094
:1030F000D4E7E01984B2AC42D9DB4FEA28208DF83E
:10310000000008F0FF008DF80100074A1268917E68
:10311000054A526810786B460222FEF76CF840B1FF
:1031200004E00000C8890008700000204FF0FF3064
:10313000B4E70121FE4880F82510A0F82690002071
:10314000ACE70146FA4890F8240008700020704768
:103150004FF0FF30704702464FF0FF307047014696
:103160004FF0FF307047F8B505460F461446002C67
:1031700070D0B5F5FF5F01DDFF2605E0202D01DAF7
:10318000012601E0C5F3471607B90127282C02DD07
:103190004FF0FF30F8BDE648407D28BBE44890F88A
:1031A000240038B10020FFF722FE0121E04880F81A
:1031B000201003E00021DE4880F82010DC481630A3
:1031C000FFF751F8DA481830FFF76DF8D8481A3091
:1031D000FFF78DF8D6481C30FFF7AEF8D448817A57
:1031E00081771F30FFF702F90020FEF75FF900201A
:1031F000FEF788FC00208DF80000CD4A1268917817
:10320000CB4A526810786B460122FDF7F4FF10B1EB
:103210004FF0FF30BEE740208DF80000C44A12682E
:10322000D17BC34A526810786B460122FDF7E3FF59
:1032300000B165E08DF800608DF80170BC4A12683D
:10324000117ABB4A526810786B460222FDF7D3FF11
:1032500008B155E047E00520FDF739FBB448407A56
:10326000072101EBC000C0B28DF80000B04A12681F
:10327000D179AF4A526810786B460122FDF7BBFF47
:1032800000B13DE020208DF80000012C03D100208A
:103290008DF801000EE0052C03DC01208DF8010003
:1032A00008E0142C03DC02208DF8010002E003206A
:1032B0008DF801009DF80100072101EB8010C0B2DC
:1032C0008DF801009A4A1268917C994A52681078E8
:1032D0006B460222FDF78FFF00B111E001219448F7
:1032E0004175002056E7924A1632002103E0505CF7
:1032F00000B105E0491C0C29F9D34FF0FF3049E734
:10330000FF208B490872FF2189484172C1724FF634
:10331000FF71C181FF218172017401210173014696
:10332000887FFEF786F98249C88AFEF7E6FC804965
:10333000087EFEF7A0FC7E49488BFEF7A4FB7C4983
:10334000888BFEF74CFC7A49C87FFEF767FB78480C
:1033500090F8200010B10120FFF749FD00217448CA
:103360004175002016E770B588B002A905A8FFF7DF
:1033700083FD0446072C3ED101A8FEF7F3FF059814
:1033800004F0DBFA0646019904F0DFF8054604F084
:10339000F3FA0590069804F0D0FA0646019904F075
:1033A000D4F8054604F0E8FA0690079804F0C5FA48
:1033B0000646019904F0C9F8054604F0DDFA0790C5
:1033C00005A800F052FA6846FEF7E9FFBDF80010C4
:1033D000029848430290BDF80010039848430390B8
:1033E000BDF8001004984843049002A800F0D0FAF9
:1033F000002008B070BD0120FBE7014691F90020D4
:10340000002A01DD00201EE091F90020002A01DAE7
:10341000042018E091F90120002A01DD012012E0CA
:1034200091F90120002A01DA05200CE091F902202F
:10343000002A01DD022006E091F90220002A01DACB
:10344000062000E00720704710B504462046FFF72D
:10345000D4FF0346E01CFFF7D0FF43EAC00083B26D
:10346000A01DFFF7CAFF43EA801083B2184610BDC3
:1034700070B50024FDF7FDFEFEF781FC00283DD16C
:103480007820FEF7D6F8C4B20CB1012070BD7820C8
:10349000FEF7C4FAC4B20CB10220F7E76420FEF7CD
:1034A0009EFBC4B20CB10320F0E700F043F9C4B2B4
:1034B0000CB10420EAE71F48FFF7C6FF054600F0FD
:1034C00043F9C4B20CB10520E0E740F2731000F0FC
:1034D0007CFDC4B20CB10620D8E7642000F0EEFAFF
:1034E000C4B20CB10720D1E7FFF73DFF044601202D
:1034F000FFF77DFCC4B21CB10920C7E70A20C5E76D
:103500000020C3E72DE9F04F99B004460D4616465A
:103510004FF07E574FF000084FF000094FF0000ABF
:1035200012A813A918AB0EAACDE9001014A903E044
:10353000700000209C00002016A800F0A5FE18B125
:10354000012019B0BDE8F08FBDF84C0000F4807088
:1035500000287CD00E9804F0F0F983464FF09D418E
:1035600004F025F807460F9804F0E7F983464FF07A
:103570009D4104F01CF88046109804F0DEF9834663
:103580004FF09D4104F013F88146119804F0D5F9ED
:1035900083464FF09D4104F00AF8824639464FF0C9
:1035A000804003F0D2FF4946059003F0CEFF41462C
:1035B00007904FF0404003F0C8FF5146059003F0DC
:1035C000C4FF0690079903F068FF834604F001FAF0
:1035D000CDE9080104F098FE4FF06632544BCDE976
:1035E0000A0104F0C9F8CDE90C0104F005FA2060E5
:1035F00049464FF0804003F0A8FF4946029003F08F
:10360000A4FF414604904FF0404003F09EFF414626
:10361000029003F09AFF0390049903F090FF834611
:103620004FF07E5103F039FF059004F0D2F9CDE957
:10363000080139464FF0804003F087FF4146039070
:1036400003F083FF494604904FF0804000E06AE0B9
:1036500003F07BFF5146039003F077FF8346049904
:1036600003F01BFF059004F0B4F9CDE90601DDE994
:10367000082305F091F84FF066322D4BCDE90A0191
:1036800004F07AF8CDE90C0104F0B6F9286051464F
:10369000504603F05AFF49460490484603F055FF50
:1036A00041460390404603F050FF394601903846AA
:1036B00003F04BFF0090019903F0EFFE0290039995
:1036C00003F03DFF8346049903F039FF059004F0B1
:1036D00080F9CDE908015146384603F036FF4946E6
:1036E0000490404603F031FF0390049903F0D5FEA7
:1036F0004FF08041059003F028FF834604F069F9FC
:10370000CDE90601DDE9082305F046F84FF0663201
:10371000074BCDE90A0104F02FF8CDE90C0104F0C4
:103720006BF9306001E002200BE7002009E70000A0
:1037300066A64C4010B5C8234FF48062F74940F6A6
:10374000F630FFF79EFC10BD10B586B00446F4A01D
:1037500000680390F3A000680290F3A00068019055
:10376000F2A00068009004F0030003A9085C8DF843
:10377000140003A8C4F3C101405C8DF8150003A830
:10378000C4F38111405C8DF8160004F0030002A917
:10379000085C8DF8100002A8C4F3C101405C8DF8EC
:1037A000110002A8C4F38111405C8DF8120005AA33
:1037B000032140F22640FFF7EAFB18B14FF0FF303B
:1037C00006B010BD04AA032140F22A40FFF7DFFB38
:1037D00010B14FF0FF30F3E7019805900098049086
:1037E00004F0040058B19DF8140040F001008DF879
:1037F00014009DF8100040F001008DF8100004F056
:10380000200058B19DF8150040F001008DF815001A
:103810009DF8110040F001008DF8110004F4807053
:1038200058B19DF8160040F001008DF816009DF883
:10383000120040F001008DF8120005AA03214FF498
:103840008860FFF7A4FB10B14FF0FF30B8E704AA7F
:10385000032140F23140FFF79AFB10B14FF0FF30E7
:10386000AEE7B34804810020AAE71FB50446B0487C
:10387000007A00F0030054F820000190AC48007A70
:1038800000F0040010B1019840420190A848007A6D
:10389000C0F3C10054F820000290A548007A00F05F
:1038A000200010B1029840420290A148007AC0F373
:1038B000811054F8200003909D48008900F4807026
:1038C00010B10398404203909A49019880FB01018E
:1038D000800F40EA810001909649029880FB011018
:1038E000820042EA917002909249039880FB011095
:1038F000820042EA917003900198000E8DF800005A
:103900000198000C8DF801000198000A8DF8020062
:103910000198C0B28DF803006A4604214FF4747018
:10392000FFF735FB18B14FF0FF3004B010BD02981F
:10393000000E8DF800000298000C8DF8010002982E
:10394000000A8DF802000298C0B28DF803006A46A2
:1039500004214FF47570FFF71AFB10B14FF0FF30E0
:10396000E3E70398000E8DF800000398000C8DF833
:1039700001000398000A8DF802000398C0B28DF888
:1039800003006A4604214FF47670FFF700FBCCE792
:1039900070B588B0064601A8FEF701FDBDF8040029
:1039A0000021C90341EA5045C4036148007A00F090
:1039B000030056F8200005905D48007A00F00400EE
:1039C00010B10598404205905948007AC0F3C100F3
:1039D00056F8200006905648007A00F0200010B1FA
:1039E0000698404206905248007AC0F3811056F87B
:1039F000200007904E48008900F4807010B10798AD
:103A0000404207900598C117A0FB042301FB043135
:103A100000FB0510810041EA927005900698C117DD
:103A2000A0FB042301FB043100FB0510810041EAE7
:103A3000927006900798C117A0FB042301FB043184
:103A400000FB0510810041EA927007900598000E76
:103A50008DF808000598000C8DF809000598000AFB
:103A60008DF80A000598C0B28DF80B000698000E7C
:103A70008DF80C000698000C8DF80D000698000AD1
:103A80008DF80E000698C0B28DF80F000798000E52
:103A90008DF810000798000C8DF811000798000AA7
:103AA0008DF812000798C0B28DF8130002AA0C21FD
:103AB0004FF42570FFF76BFA08B070BD30B585B0D4
:103AC00004461DA207CA02AB07C3C82C03DD4FF092
:103AD000FF3005B030BDC82090FBF4F0401E85B229
:103AE000280A8DF80000E8B28DF801006A4602212C
:103AF00040F21620FFF74BFA10B14FF0FF30E8E725
:103B000002AA0C2140F6C120FFF741FA10B14FF094
:103B1000FF30DEE7064884810020DAE7F0890008FC
:103B20004CCD6C000CC92C0036567600264666003B
:103B30008401002009E3CA02FEF2ABC4AAF1DFDF70
:103B4000BBAFDFDF0146FC4880890880002070475A
:103B50002DE9FC4706460F4606F0070010B1B7F501
:103B6000C86F03DD4FF0FF30BDE8FC87384603F037
:103B7000EDFE8146F14903F01AFD80466846FEF7E6
:103B800092FB9DF80000022806D0042816D00828D1
:103B900026D0102848D135E04FF08D41404603F043
:103BA000D4FC814603F001FF84B2E549404603F0AE
:103BB000CCFC814603F0F9FE85B238E04FF08C4131
:103BC000404603F0C2FC814603F0EFFE84B2DD49BB
:103BD000404603F0BAFC814603F0E7FE85B226E0DA
:103BE0004FF08B41404603F0B0FC814603F0DDFE10
:103BF00084B2D549404603F0A8FC814603F0D5FEC7
:103C000085B214E04FF08A41404603F09EFC8146A5
:103C100003F0CBFE84B2CD49404603F096FC8146CA
:103C200003F0C3FE85B202E04FF0FF309CE700BF17
:103C300020128DF80400E0B28DF8050028128DF8EE
:103C40000600E8B28DF8070006F00100A0B101AA55
:103C500002214FF4EA70FFF79AF910B14FF0FF30EC
:103C600082E70DF1060202214FF49270FFF78FF9FF
:103C700010B14FF0FF3077E706F00200A0B101AAC3
:103C800002214FF4EC70FFF782F910B14FF0FF30D2
:103C90006AE70DF1060202214FF49470FFF777F9FD
:103CA00010B14FF0FF305FE706F00400A0B101AAA9
:103CB00002214FF4EE70FFF76AF910B14FF0FF30B8
:103CC00052E70DF1060202214FF49670FFF75FF9FB
:103CD00010B14FF0FF3047E7002045E738B5044604
:103CE0000020009004F0010020B19DF8000040F099
:103CF0003000009004F0020020B19DF8000040F078
:103D00000C00009004F0040020B19DF8000040F089
:103D1000030000906A4601214FF4A470FFF737F9C1
:103D200038BD38B50446012C01DA012402E0042C28
:103D300000DD0424601EC0B200906A46012140F2FA
:103D40004F10FFF724F938BD38B50446052094FB21
:103D5000F0F085B228128DF80000E8B28DF801006D
:103D60006A4602214FF4EF70FFF711F938BD38B5FC
:103D70000446052094FBF0F085B228128DF800006F
:103D8000E8B28DF801006A4602214FF4ED70FFF7AA
:103D9000FEF838BDF8B505460E464FF47A7095FB2F
:103DA000F0F000FB06F4200E8DF80000200C8DF8DA
:103DB0000100200A8DF80200E0B28DF803006A4687
:103DC00004214FF4AE70FFF7E2F8F8BD38B50446B1
:103DD000052094FBF0F084B220128DF80000E0B2D0
:103DE0008DF801006A4602214FF4AD70FFF7CFF85D
:103DF00038BD38B50446052094FBF0F084B220129B
:103E00008DF80000E0B28DF801006A4602214FF4FF
:103E1000AC70FFF7BCF838BD38B5044614B94FF0A4
:103E2000FF3038BD6A4604214FF45870FFF7ECF8B4
:103E300010B14FF0FF30F4E79DF8000000069DF848
:103E4000011040EA01409DF8021040EA01209DF86F
:103E50000310084320600020E3E738B50446200E35
:103E60008DF80000200C8DF80100200A8DF802006A
:103E7000E0B28DF803006A4604214FF45870FFF752
:103E800086F838BD38B5044614B94FF0FF3038BD58
:103E90006A4604214FF47170FFF7B6F810B14FF085
:103EA000FF30F4E79DF8000000069DF8011040EA9D
:103EB00001409DF8021040EA01209DF803100843DC
:103EC00000EB8000800020600020E0E738B5044669
:103ED0001420B4FBF0F4200E8DF80000200C8DF8B7
:103EE0000100200A8DF80200E0B28DF803006A4656
:103EF00004214FF47170FFF74AF838BD38B5044615
:103F000064B120208DF8000028208DF801003020B9
:103F10008DF8020038208DF8030004E0A32204216C
:103F2000684603F094FA6A46042140F69E20FFF7A3
:103F30002EF8FDF787FC38BD8401002000004843BF
:103F4000000040460000C045000040450000C0445D
:103F500038B5044664B1C0208DF80000C2208DF849
:103F60000100C4208DF80200C6208DF8030004E093
:103F70008B220421684603F06AFA6A46042140F65F
:103F80009820FFF704F8FDF75DFC38BD3EB5044608
:103F90006CB1FDA1D1E900208968CDE90020029132
:103FA0006A4609214FF49760FEF7F1FF3EBDF9A282
:103FB000D2E900109268CDE9010200916A46092118
:103FC0004FF49760FEF7E3FFF0E73EB504460220AA
:103FD0008DF80000CA208DF80100E3208DF8020062
:103FE00009208DF803006A4604216820FEF7CFFF00
:103FF000A3208DF8000004F0400048B1C0208DF8E7
:104000000100C8208DF80200C2208DF8030006E0F0
:10401000A3208DF801008DF802008DF8030004F450
:10402000C07048B1C4208DF80400CC208DF8050084
:10403000C6208DF8060006E0A3208DF804008DF858
:1040400005008DF80600A3208DF807008DF8080004
:104050008DF809006A460A2140F6A720FEF797FF6F
:1040600004F0030018B120208DF8000002E0D820F1
:104070008DF800006A46012140F6B620FEF787FF62
:1040800004F0200018B10120FFF780FF02E00020BB
:10409000FFF77CFF04F4C07008B304F4807060B1D3
:1040A000B2208DF800008B208DF80100B6208DF82D
:1040B00002009B208DF803000BE0B0208DF800007B
:1040C00080208DF80100B4208DF8020090208DF83A
:1040D00003006A46042140F6A220FEF758FF04F0D0
:1040E000010020B3F8208DF800006A4601214FF44A
:1040F0000B60FEF74CFFFA210720FFF729FD072090
:10410000FFF7ECFD0120FFF70CFE6420FFF71CFE1B
:104110004FF4FA70FFF72BFEC821A148FFF73AFED3
:104120002820FFF753FE0A20FFF763FE08E0D8209F
:104130008DF800006A4601214FF40B60FEF727FF5F
:1041400004F0020018B1D9208DF8000002E0D82058
:104150008DF800006A46012140F23D70FEF717FF1E
:1041600004F0040018B10120FFF7F2FE02E0002085
:10417000FFF7EEFE04F0100018B10120FFF7BEFEBD
:1041800002E00020FFF7BAFE44F0080085494881AC
:10419000FDF758FB00208349887304F0400018B1F4
:1041A0000846807B801D887304F4C07020B17D4870
:1041B000807B801D7B49887304F0140020B179480E
:1041C000807B10307749887304F0030020B1754874
:1041D000807B001D7349887300203EBD01467148F5
:1041E00040890880002070472DE9F0410446E078BE
:1041F00000F0C006E07800F03F05607800F00100B4
:1042000098B1EF102846E91705EB5171C910A5EBDD
:10421000C101491C01F0FF086248006820B16148F3
:10422000414602683846904700BF607800F00800B9
:1042300030B15C48406818B1B0115A4A516888479B
:104240000020BDE8F08110B586B0044656A207CA2A
:1042500003AB07C357A207CA8DE80700012C09D09A
:10426000022C0ED103AA0B2140F68220FEF78FFE0E
:1042700006B010BD6A460B2140F68220FEF787FE8D
:10428000F6E74FF0FF30F3E72DE9F04F8DB007462A
:10429000884615469946DDE9166B002400203080DB
:1042A0004049887B5A4605A9FEF7D5F918B1601E2A
:1042B0000DB0BDE8F08F3B48807A00F01400002874
:1042C00061D09DF8140000069DF8151040EA0140E9
:1042D0009DF8161040EA01209DF817100843286049
:1042E0009DF8180000069DF8191040EA01409DF85D
:1042F0001A1040EA01209DF81B10084368609DF8E1
:104300001C0000069DF81D1040EA01409DF81E109B
:1043100040EA01209DF81F100843A8609DF8200086
:1043200000069DF8211040EA01409DF8221040EA65
:1043300001209DF823100843E86004F11000C4B286
:10434000286800140190686800140290A86800149E
:104350000390E8680014049001984043029901FB1F
:104360000100039901FB0100049901FB010ABAF164
:10437000706F02DBBAF1885F22DDFDF763FA00207F
:104380003080401E94E721E0B8AAB38DB4980D3573
:104390005D000000B8AAAAAAB088C3C5C700000083
:1043A00009E3CA0284010020D8B1B9F38BA391B606
:1043B00009B4D900DAB1B9F38BA391B6DAB4DA0053
:1043C000B6F9000040F48070308000BF3448807A35
:1043D00000F0400020B305A9601C085C095D40EABC
:1043E000012000B2A8F8000005A9E01C095C05AA9C
:1043F000A01C105C41EA002000B2A8F8020005A948
:10440000601D095C201D105C41EA002000B2A8F884
:104410000400A01DC4B2B6F9000040F008003080CE
:104420001F48408900F4C07008B305A9601C085CEF
:10443000095D40EA012000B2388005A9E01C095C52
:1044400005AAA01C105C41EA002000B2788005A9F2
:10445000601D095C201D105C41EA002000B2B8809C
:10446000A01DC4B2B6F9000040F0700030800C48C6
:10447000807A00F0030018B105A90819FFF7B4FE0F
:104480004846FDF74CFD002012E701460448016054
:10449000002070470146024841600020704700003C
:1044A0008401002008B50121042001F029FE3C20F0
:1044B000ADF8000004208DF803006946FE4801F0C5
:1044C00063FB0121082001F01BFE40F61B70ADF8D4
:1044D000000004208DF803006946F84801F054FB01
:1044E00008BDF7490968012918D1F6490968012969
:1044F00014D1F349091F096801290FD1F149091F96
:10450000096801290AD10021EF4A1180EF4A1160A0
:10451000EF4A11600121EF4A118017E10021ED4AB5
:10452000118001287ED1E7490831096881B9E44941
:104530002039096801290BD1E1492839096839B9BD
:104540000121E14A1180E449E04A1160E04A11602A
:10455000DC4908310968012910D1D9492039096895
:1045600061B9D74928390968012907D1D64A11808C
:10457000D949D64A1160D64A1160E7E0D1490831DD
:10458000096881B9CE492039096861B9CC4928390F
:10459000096841B90121CC4A1180D049CB4A116048
:1045A000CB4A1160D2E0C74908310968012911D10D
:1045B000C3492039096801290CD1C1492839096842
:1045C000012907D1C04A1180C449C04A1160C04ABC
:1045D0001160BBE0BB4908310968012911D1B84914
:1045E0002039096869B9B6492839096849B90221E9
:1045F000B54A1180B849B54A1160B949B44A116049
:10460000A4E0B04908310968002986D1AC492039B5
:1046100009680029B1D1AA49283909680129ACD112
:10462000032100E008E0A84A1180AD49A74A1160C3
:10463000A949A74A116089E000289ED1A0492C39D8
:10464000096881B99F49091D096801290BD19C4955
:104650001C39096839B9411E9B4A1180A1499B4AFE
:1046600011609B4A116096492C390968012911D1C2
:104670009449091D096869B991491C3909680129DA
:1046800008D1891E904A11809649904A1160904A3B
:1046900011605BE08A492C39096889B98949091D8B
:1046A000096869B986491C39096849B94FF0FF3171
:1046B000854A11808C49854A1160854A116045E020
:1046C0007F492C390968012912D17E49091D0968E1
:1046D00001290DD17A491C390968012908D1891E9F
:1046E000794A11808049794A1160794A11602DE038
:1046F00073492C390968012912D17249091D0968C9
:1047000071B96F491C39096851B96FF001016E4ADE
:10471000118074496D4A116074496D4A116015E049
:1047200067492C39096889B96649091D096869B959
:1047300063491C390968012908D1091F624A11809F
:104740006A49624A11606749614A116070470128ED
:104750007ED15C490831096881B959492039096815
:1047600001290BD156492839096839B90121564A1E
:1047700011805949554A1160554A11605149083113
:104780000968012910D14E492039096861B94C499D
:1047900028390968012907D14B4A11804E494B4AF3
:1047A00011604B4A1160FCE046490831096881B943
:1047B00043492039096861B941492839096841B933
:1047C0000121414A11804549404A1160404A116027
:1047D000E7E03C4908310968012911D138492039FD
:1047E000096801290CD1364928390968012907D1FE
:1047F000354A11803949354A1160354A1160D0E097
:10480000304908310968012911D12D492039096839
:1048100069B92B492839096849B902212A4A118006
:104820002D492A4A11602E49294A1160B9E02549CB
:10483000083109680029B6D12149203909680029C1
:10484000B1D11F49283909680129ACD1032100E001
:1048500008E01D4A118022491C4A11601E491C4A69
:1048600011609EE000289ED115492C39096881B954
:104870001449091D096801290BD111491C3909681E
:1048800039B9411E104A11801649104A1160104A68
:1048900011600B492C39096801292ED10949091DDC
:1048A000096851BB06491C390968012925D1891EAF
:1048B000054A11800B491BE000080140000C014033
:1048C0002C8121420C0121422800002018000020E8
:1048D0001C0000202C0000200000FAC3000096C33A
:1048E000008009C40000FA43000096430080094498
:1048F000FE4A1160FE4A116053E0FE49096881B921
:10490000FD49096869B9FB491031096849B94FF097
:10491000FF31FA4A1180FA49F44A1160F44A1160F1
:104920003FE0F4490968012911D1F34909680129D7
:104930000DD1F04910310968012908D1891EEF4ACB
:104940001180EF49E94A1160E94A116029E0E9491B
:104950000968012911D1E849096871B9E54910319F
:10496000096851B96FF00101E44A1180E549DF4A55
:104970001160E549DE4A116013E0DE49096881B93A
:10498000DD49096869B9DB4910310968012908D195
:10499000091FDA4A1180DC49D44A1160D949D44A46
:1049A0001160704701287DD1D24920310968012961
:1049B0001FD1D0492431096801291AD1CE49091FD4
:1049C0000968B1B9CC490839096891B9C9492C318C
:1049D000096871B9C7492831096851B90021C74A26
:1049E0001180C24A1160C24A11600121C74A118078
:1049F00027E10021C54A1180BF49091D096881B915
:104A0000BC490C31096801290BD1BA49091D096853
:104A100039B90121B94A1180BD49B44A1160B44A7B
:104A20001160B549091D0968012910D1B1490C313E
:104A3000096861B9AF49091D0968012907D1AF4A61
:104A40001180B349A94A1160A94A1160F9E0AA4945
:104A5000091D096881B9A7490C31096861B9A549DF
:104A6000091D096841B90121A44A1180A9499F4A39
:104A700011609F4A1160E4E09F49091D09680129FE
:104A800013D19C490C31096801290ED19949091D9E
:104A90000968012909D1994A11809E49934A1160F8
:104AA000934A00E031E01160CBE09349091D0968A9
:104AB000012911D18F490C31096869B98D49091D46
:104AC000096849B902218D4A11809149874A1160CC
:104AD0009149874A1160B4E08749091D0968002996
:104AE00086D184490C3109680029AFD18149091D5B
:104AF00009680129AAD10321804A118086497B4A8D
:104B0000116083497A4A11609BE000289ED17A495E
:104B1000091F0968012917D177490839096801294E
:104B200012D174492C31096871B972492831096868
:104B300051B90021714A11806C4A11606C4A1160B0
:104B40000121724A11807CE06A49096881B96A4989
:104B5000096801290CD167491031096841B94FF042
:104B6000FF31664A11806749604A1160604A1160EE
:104B700060490968012910D15F49096869B95D492F
:104B800010310968012908D1891E5C4A11805D49EC
:104B9000564A1160564A116053E05649096881B976
:104BA0005549096869B953491031096849B94FF045
:104BB000FF31524A118052494C4A11604C4A1160EF
:104BC0003FE04C490968012911D14B490968012985
:104BD0000DD1484910310968012908D1891E474A79
:104BE00011804749414A1160414A116029E0414919
:104BF0000968012911D14049096871B93D4910314D
:104C0000096851B96FF001013C4A11803D49374AAA
:104C100011603D49364A116013E03649096881B98F
:104C20003549096869B9334910310968012908D142
:104C3000091F324A118034492C4A116031492C4AEB
:104C400011607047012869D12A492031096801297A
:104C500023D128492431096801291ED12649091F79
:104C60000968D1B9244908390968B1B921492C31F9
:104C7000096891B91F492831096871B900211F4A93
:104C800011802349194A1160194A11601F49098886
:104C9000491E09B21D4A118043E100211B4A1180BF
:104CA0001549091D096881B912490C3109680129A2
:104CB0000BD11049091D096839B901210F4A11802A
:104CC00013490A4A11600A4A11600B49091D096813
:104CD00001292AD107490C31096831BB0549091D51
:104CE0000968012921D1054A118018E01800002027
:104CF0001C000020008121421001214228000020D8
:104D0000000096430000FA43008009442E00002072
:104D10000000FAC3000096C3008009C459E081492D
:104D2000814A1160814A1160FBE08149096879B9C3
:104D30008049096861B97F490839096841B9012189
:104D40007D4A11807D49784A1160784A1160E8E017
:104D500077490968012910D17649096801290CD1E0
:104D6000744908390968012907D1734A11807349C8
:104D70006D4A11606D4A1160D3E06D4909680129DF
:104D800010D16C49096869B96A490839096849B993
:104D90000221694A11806349634A11606849634A84
:104DA0001160BEE0624909680029BDD16149096806
:104DB0000029B9D15F49083909680129B4D1032113
:104DC0005D4A11805E49584A11605649574A116040
:104DD000A7E00028A8D1564908390968012917D148
:104DE00053490C390968012912D152492031096807
:104DF00071B950491C31096851B900214E4A1180DE
:104E0000494A1160494A116001214E4A118088E0E7
:104E100048490C39096889B94549091F09680129B8
:104E20000CD14449091D096841B94FF0FF31424A8C
:104E3000118045493C4A11603C4A11603D490C399A
:104E40000968012911D13A49091F096869B9394925
:104E5000091D0968012908D1891E374A11803A497C
:104E6000314A1160314A11605BE032490C390968FE
:104E700089B92F49091F096869B92E49091D0968AF
:104E800049B94FF0FF312C4A11803049264A116050
:104E9000264A116045E027490C390968012912D1D9
:104EA0002349091F096801290DD12249091D0968F3
:104EB000012908D1891E204A118024491A4A11600B
:104EC0001A4A11602DE01B490C390968012912D1D9
:104ED0001749091F096871B91649091D096851B9AF
:104EE0006FF00101144A118017490F4A11601849E7
:104EF0000E4A116015E00F490C39096889B90C494F
:104F0000091F096869B90B49091D0968012908D1F8
:104F1000091F094A11800E49034A11600A49034AD0
:104F2000116070470000FAC3180000201C00002028
:104F3000140121420C81214228000020000096C368
:104F4000008009C42E0000200000FA4300009643B0
:104F50000080094410B5044634B1012C0DD0022C58
:104F600014D0032C24D11AE01021F74800F0B9FE28
:104F70002021F54800F0B7FE23E01021F24800F0B0
:104F8000B2FE2021F04800F0AEFE1AE01021EE48FB
:104F900000F0A7FE2021EC4800F0A3FE11E0102154
:104FA000E94800F0A0FE2021E74800F09AFE08E062
:104FB0001021E54800F095FE2021E34800F093FE23
:104FC00000BF00BF10BD10B5044634B1022C0DD097
:104FD000142C14D0642C24D11AE00821DB4800F0F2
:104FE00082FE1021D94800F07EFE23E00821D74838
:104FF00000F079FE1021D54800F073FE1AE0082178
:10500000D24800F06EFE1021D04800F06CFE11E096
:105010000821CE4800F065FE1021CC4800F061FE6A
:1050200008E00821C94800F05EFE1021C74800F0E2
:105030005AFE00BF00BF10BD08B50121042001F0D9
:105040005FF83020ADF8000010208DF80300032039
:105050008DF802006946BC4800F096FD0121082049
:1050600001F04EF81A20ADF8000010208DF8030072
:1050700003208DF802006946B44800F085FD142035
:10508000FFF7A1FF0020FFF765FF0221AF4800F006
:105090002AFEFBF7ADFC08BDAD48006801283AD1F7
:1050A000AC48B0F9000006282DD2DFE800F0250357
:1050B0000A10171E0120A84908600220A4490860B0
:1050C00028E00220A4490860A149086022E00320EA
:1050D000A149086002209E4908601BE004209E4907
:1050E000086002209A49086014E005209A49086087
:1050F0000220974908600DE00020964908800120B1
:105100009349086006E000209249088001209049F8
:10511000086000BFFBE08E48006802283AD18D4845
:10512000B0F9000006282DD2DFE800F025030A11AF
:10513000171E01208849486003208549086028E03F
:1051400002208549486003208149086021E003204E
:10515000814948607E4908601BE004207E49486020
:1051600003207B49086014E005207B494860032048
:10517000774908600DE000207649088002207449D4
:10518000086006E00020734908800220704908602A
:1051900000BFBCE06E48006803283AD16D48B0F902
:1051A000000006282DD2DFE800F025030A11181EA2
:1051B00001206949886004206549086028E00220D0
:1051C0006549886004206249086021E00320624943
:1051D000886004205E4908601AE004205E49886007
:1051E0005B49086014E005205B4988600420584949
:1051F00008600DE0002057490880032054490860EA
:1052000006E000205349088003205149086000BF90
:105210007DE04F48006804283AD14E48B0F90000BC
:1052200006282DD2DFE800F025030A11181F0120FF
:105230004949C86005204649086028E002204649DF
:10524000C86005204249086021E003204249C86047
:1052500005203F4908601AE004203F49C860052046
:105260003B49086013E005203B49C86038490860A5
:105270000DE000203749088004203549086006E029
:1052800000203449088004203149086000BF3EE016
:105290002F48006805283AD12E48B0F900000628AA
:1052A0002DD2DFE800F025030A11181F01202A493A
:1052B000086105202649086028E002202649086187
:1052C00005202349086021E00320234908610520C7
:1052D0001F4908601AE004201F49086105201C4985
:1052E000086013E005201C490861194908600DE0B9
:1052F00000201849088005201549086006E00020B4
:105300001449088005201249086000BF00BF70479B
:1053100012480068EB2823DB10480068FF281FDCD8
:105320000E484068EB281BDB0C484068FF2817DC60
:105330000A488068EB2813DB08488068FF280FDCE8
:105340000120044908807EE000080140000C014073
:10535000A800002036000020E0000020C800002047
:105360008D4800680A2817DB8B480068322813DC58
:10537000894840680A280FDB8748406832280BDCE0
:10538000854880680A2807DB83488068322803DC68
:1053900002208249088056E07F4800689B2817DB7E
:1053A0007D480068C32813DC7B4840681A280FDB5F
:1053B0007948406842280BDC77488068252807DB5D
:1053C000754880684D2803DC0320744908803AE062
:1053D00071480068192817DB6F480068412813DC02
:1053E0006D48406846280FDB6B4840686E280BDC30
:1053F00069488068352807DB674880685D2803DCDA
:105400000420664908801EE0634800681A2817DBFC
:1054100061480068422813DC5F48406827280FDB9A
:105420005D4840684F280BDC5B488068492807DBF3
:1054300059488068712803DC05205849088002E03B
:10544000002056490880704710B55548B0F9000053
:10545000052834D2DFE800F0030A141E29000120D9
:10546000FFF778FD01204E49088031E04D48006883
:105470004D49086002204A490880FFF76BFD27E08C
:105480004848006848494860032045490880FFF7BC
:1054900061FD1DE04348006843498860042040499D
:1054A00008800020FFF756FD12E00020FFF752FDB4
:1054B00001203E49088000203949088008E000208A
:1054C000FFF748FD0020364908803849088000BFB2
:1054D00000BF00203349086010BD10B53348008874
:1054E000012806D132480088012804D1FFF7F5FFD2
:1054F00001E0FFF7A9FF10BD10B52948B0F9000081
:1055000030B101280BD0022819D0032837D126E06A
:105510000120FFF71FFD01202149088036E02148C6
:105520000068C0EB00202049096890FBF1F01A499F
:10553000086002201A490880FFF70CFD26E0194890
:105540000068C0EB00201849496890FBF1F012494F
:105550004860032012490880FFF7FCFC16E0114860
:105560000068C0EB00201049896890FBF1F00A49FF
:10557000886000200A490880FFF7ECFC06E0002064
:10558000FFF7E8FC00200649088000BF00BF0020AC
:105590000449086010BD0000C8000020360000204B
:1055A0003000002040000020D40000203200002005
:1055B0003400002010B586B004460121042000F01C
:1055C0009FFD0121480400F0A8FD0420ADF814005F
:1055D00003208DF8160018208DF8170005A95748EC
:1055E00000F0D2FA0820ADF8140004208DF817005E
:1055F00005A9524800F0C8FA01940020ADF808004F
:10560000ADF80A00ADF80C00ADF810000C20ADF8B4
:105610000E0001A94A4801F028FD012240F225515F
:10562000474801F0BAFD0121454801F0AAFD06B046
:1056300010BD0A283ED2DFE800F03D050B11171E11
:10564000242A303700213F4A11603F4A116037E079
:105650003E493C4A11603C4A116031E03C49394ABC
:105660001160394A11602BE03A49364A11603849D5
:10567000354A116024E03849324A1160324A1160DB
:105680001EE036492F4A11602F4A116018E0344954
:105690002C4A11602C4A116012E03249294A1160EB
:1056A0002F49294A11600BE02F49264A1160264AEA
:1056B000116005E00021234A1160234A116000BFF8
:1056C00000BF704710B540F225511D4801F04AFE59
:1056D00030B11B4801F0C6FD04462046FFF7A9FF84
:1056E00010BD10B504462146154801F0B7FD00BFB6
:1056F0004021134801F020FE0128F9D110BD70B5FA
:1057000004460D46002605E014F8010BFFF7E9FFFB
:10571000701C86B2AE42F7DB70BD70B50446204601
:1057200001F0A7FE86B2002505E014F8010BFFF793
:10573000D8FF681C85B2B542F7DB70BD0008014098
:1057400000440040180000201C00002000004843D6
:105750000000FA43008009440080BB44000048C3B5
:105760000000FAC3008009C40080BBC470477047C2
:10577000704770477047704770477047704700B573
:10578000FFF7FCFF0020FFF7F8FF0020FFF7F4FF12
:105790000020FFF7F0FF0020FFF7ECFF0020FFF7ED
:1057A000E8FF0020FFF7E4FF0020FFF7E0FF002004
:1057B000FFF7DCFF00BD10B50446012C0DD196208B
:1057C000FFF7DAFF4FF4FA70FBF781F80020354954
:1057D00008800120344908803EE0022C0DD196203B
:1057E000FFF7C9FF4FF4FA70FBF771F800202D495D
:1057F000088001202C4908802EE0032C0DD1962032
:10580000FFF7B8FF4FF4FA70FBF761F80020254965
:1058100008800120244908801EE0042C0DD1962028
:10582000FFF7A7FF4FF4FA70FBF751F800201D496E
:10583000088001201C4908800EE0052C0CD1962020
:10584000FFF796FF4FF4FA70FBF741F80020154977
:10585000088001201449088010BD70B504460D462B
:105860001048008801281BD11CB92846FFF7A3FF68
:1058700016E0012C03D12846FFF79DFF10E0022C13
:1058800003D12846FFF797FF0AE0601C18B92846A5
:10589000FFF791FF04E0A01C10B92846FFF78BFF2B
:1058A00070BD0000380000203A0000200648804704
:1058B00006480047FEE7FEE7FEE7FEE7FEE7FEE7F5
:1058C000FEE7FEE7FEE7FEE75B020008ED000008EA
:1058D00031490143314A1160704770B500210023FE
:1058E0000F22C47804B32D4C246804F4E064C4F59A
:1058F000E064210AC1F10403CA40447804FA03F1C8
:105900008478144021430901254C0678A155047878
:1059100004F01F050124AC4005786D11AD0005F1C0
:10592000E025C5F8004109E0047804F01F050124D2
:10593000AC401C4D0678761145F8264070BD1A4AD9
:105940000A400243154B1B1F1A60704739B1134AB6
:10595000121D12680243114B1B1D1A6006E00F4A0C
:10596000121D126882430D4B1B1D1A6070470428DC
:1059700008D14FF0E021096941F004014FF0E02225
:10598000116107E04FF0E021096921F004014FF0B7
:10599000E0221161704700000000FA050CED00E004
:1059A00000E400E080E100E080FFFF1F00204449A8
:1059B0000860091D0860091D0860091D086041484C
:1059C0003F4914310860704700213D498279002A1F
:1059D0003AD00A46126803689A430B461A600A1DB9
:1059E000126803689A430B1D1A60027911440A6811
:1059F00003681A430A60324A0832126803689A43FD
:105A00002F4B08331A601A1D126803689A432C4BF7
:105A10000C331A604279102A0ED11A1F12680368DB
:105A20001A43274B08331A601A1D126803681A4379
:105A3000234B0C331A600DE02149427911440A6866
:105A400003681A430A6005E0027911440A68036892
:105A50009A430A6070470021016001710C21417175
:105A60000021817170471649103109680143144AB9
:105A700010321160704701460020114A143212683A
:105A80000A400AB1012000E0002070470C4914319F
:105A900008607047014600200022094B1B6803EA9A
:105AA0000102074B14331B680B4013B10AB10120EC
:105AB00000E0002070470249143108607047000080
:105AC00000040140FFFF0F0010B50446CC4884429B
:105AD00008D10121042000F02DFB0021042000F05A
